:020000040000FA
:1000000000F1FF1FC1000000CD000000CF00000084
:1000100000000000000000000000000000000000E0
:10002000000000000000000000000000D1000000FF
:100030000000000000000000D3000000D500000018
:10004000D7000000D7000000D7000000D700000054
:10005000D7000000D7000000D7000000D700000044
:10006000D7000000D7000000D7000000D700000034
:10007000D7000000D7000000D7000000D700000024
:10008000D7000000D7000000D7000000D700000014
:10009000D7000000D7000000D7000000D700000004
:1000A000D7000000D7000000D7000000D7000000F4
:1000B000D7000000D7000000D7000000D7000000E4
:1000C00072B60948804762B608480047FEE7FEE777
:1000D000FEE7FEE7FEE70648004700000548064940
:1000E000044A064B7047000045010000090100006A
:1000F000D700000000F0FF1F00F1FF1F00F0FF1FFE
:1001000070477047704700000D4B5B1E002208A42B
:100110002068241D521C9A4208D02568241D521CB8
:10012000854200DCF7E728001100F4E7FEE7000055
:10013000010000001500000003000000FFFFFFFFAA
:10014000040000000020014908607047008104405D
:10015000000000000000000000000000000000009F
:10016000000000000000000000000000000000008F
:10017000000000000000000000000000000000007F
:10018000000000000000000000000000000000006F
:10040000FFFFFFFFFFFFFFFFFFFFFFFFFEFFFFFFFD
:0400000500000109ED
:00000001FF
