:020000040000FA
:1000000000F1FF1FC1000000CD000000CF00000084
:1000100000000000000000000000000000000000E0
:10002000000000000000000000000000D1000000FF
:100030000000000000000000D3000000D500000018
:10004000D7000000D7000000D7000000D700000054
:10005000D7000000D7000000D7000000D700000044
:10006000D7000000D7000000D7000000D700000034
:10007000D7000000D7000000D7000000D700000024
:10008000D7000000D7000000D7000000D700000014
:10009000D7000000D7000000D7000000D700000004
:1000A000D7000000D7000000D7000000D7000000F4
:1000B000D7000000D7000000D7000000D7000000E4
:1000C00072B60948804762B608480047FEE7FEE777
:1000D000FEE7FEE7FEE70648004700000548064940
:1000E000044A064B7047000021010000090100008E
:1000F000D700000000F0FF1F00F1FF1F00F0FF1FFE
:1001000070477047704700000120062100220A282E
:1001100005D0401C490800D2F9E7521CF7E7FEE77A
:100120000020014908607047008104400000000081
:1001300000000000000000000000000000000000BF
:1001400000000000000000000000000000000000AF
:10015000000000000000000000000000000000009F
:10016000000000000000000000000000000000008F
:10040000FFFFFFFFFFFFFFFFFFFFFFFFFEFFFFFFFD
:0400000500000109ED
:00000001FF
